:020000040800F2
:10000000F0070020B90100084F2D0008952C0008CA
:100010004D2D0008BD1C00084B2F000800000000FB
:10002000000000000000000000000000532D000848
:10003000BF1C000800000000512D0008552D0008CD
:10004000D3010008D3010008D3010008D301000840
:10005000D3010008D3010008D3010008D301000830
:10006000D3010008D3010008D3010008D301000820
:10007000D3010008D3010008D3010008D301000810
:10008000D3010008D3010008D3010008D301000800
:10009000D3010008D3010008D3010008D3010008F0
:1000A000D3010008D3010008D3010008D3010008E0
:1000B000D3010008D3010008D3010008D3010008D0
:1000C000D3010008D3010008D3010008D3010008C0
:1000D000D3010008D3010008D3010008D3010008B0
:1000E000D3010008D3010008D301000800F002F892
:1000F00000F052F80AA090E8000C82448344AAF170
:100100000107DA4501D100F047F8AFF2090EBAE86D
:100110000F0013F0010F18BFFB1A43F0010318473B
:10012000E833000008340000103A24BF78C878C1D2
:10013000FAD8520724BF30C830C144BF04680C60ED
:10014000704700000023002400250026103A28BF35
:1001500078C1FBD8520728BF30C148BF0B60704739
:10016000662903F06181752900F0528000207047F4
:100170001FB59DE8030000F041FF00F0D9FB04002B
:100180000020002102F066FFE06000F0E9FC1FBDE6
:1001900010B500F04EFD10BD00F0B6FD1146FFF7A2
:1001A000E7FF02F00BFF00F0BBFE03B4FFF7F0FF28
:1001B00003BC01F0B5F80000094880470948004732
:1001C000FEE7FEE7FEE7FEE7FEE7FEE7FEE7FEE707
:1001D000FEE7FEE704480549054A064B7047000064
:1001E000D12D0008ED000008F0010020F0070020EC
:1001F000F0030020F00300200FB4044910B503AA57
:10020000029800F083FB10BC5DF814FBE8000020AE
:100210002DE9F0410646002410687529314616A5DF
:1002200010D0AFF30080002802DA404213A507E0A7
:1002300031688A0701D512A502E0490704D511A546
:10024000012401E0AFF3008000210A2206F1240717
:1002500009E0B0FBF2FCB0FBF2F302FB1C00303013
:1002600078541846491C0028F3D123462A463046C4
:10027000BDE8F04100F0E2B8000000002D000000F1
:100280002B000000200000002DE9F0474FF0000A8D
:1002900089460446C0F820A02046E1688847002827
:1002A00076D0252806D0D4E901219047206A401C49
:1002B0002062F1E7E168204600268847C4F81CA0C8
:1002C00005460027C4F818A02A2D09D0284602F0B8
:1002D00061FE38B304EB8708303DC8F8185019E0C8
:1002E00059F8041B204604EB87029161E1688847B6
:1002F000012F054618D1E069002820DA26F02006F3
:100300001DE0D8F8180000EB800005EB4000303805
:10031000C8F818002046E1688847054602F03AFE12
:100320000028EED1012F0AD02E2D08D12046E168F9
:1003300088477F1C0546022F46F02006C4DBA069D3
:10034000002803DA404246F00106A061F00701D020
:1003500026F010066C2D0AD0682D08D04C2D39D00F
:100360006A2D35D0742D35D07A2D33D016E0E16862
:100370002F4620468847B84205460AD16C2F27D021
:100380004FF48060E168064320468847054605E053
:1003900027E06C2F1AD04FF4807006430DB3A5F1FF
:1003A0004100192802D8203546F400664A462946FD
:1003B000204626604E46FFF7D3FE80B101280BD0C1
:1003C000F61D26F0070000F1080965E74020E4E784
:1003D0008020D7E70020D5E706F104095CE728462E
:1003E00061E7206ABDE8F0874FF0000200B51346D0
:1003F00094469646203922BFA0E80C50A0E80C5045
:10040000B1F12001BFF4F7AF090728BFA0E80C50F5
:1004100048BF0CC05DF804EB890028BF40F8042BEE
:1004200008BF704748BF20F8022B11F0804F18BF5B
:1004300000F8012B70477047704770472DE9F0476F
:100440000D4699469246044600F124080168880644
:1004500004D5E06921F01001216000E00120A842EC
:1004600001DD471B00E00027A1697A1902EB0900B2
:10047000081AA0612078C00602D42046AFF300809D
:10048000002608E0D4E901211AF806009047206A06
:10049000401C761C20624E45F4DB2078C0060AD54D
:1004A0002046AFF3008006E0D4E9012130209047D8
:1004B000206A401C2062381EA7F10107F4DC07E027
:1004C000D4E9012118F805009047206A401C2062F9
:1004D000281EA5F10105F3DC2046AFF3008020784B
:1004E000000602D50220BDE8F0870120FBE7704737
:1004F0002DE9FF4F0C461E464FF0FF378BB0D2E977
:100500000001DDF860800A908A46C1F30A5505B9FA
:100510003D46002108464FF00000BAF1000F00F4FC
:10052000400005DA00EB80004FF4400101EA500082
:100530004FEA9059B9F1010F00DDB9460A9850EA27
:100540004A000ED044F61050A5F2FF3545432F1453
:10055000B8F1000F1ED07542291E1EDDC9F1000240
:100560001CE0B8F1010F4FF0000001D0302103E092
:10057000F24305E02154401CB042FBDB3046002230
:10058000002121540B99C1F80880C1E900200FB067
:10059000BDE8F08FBD1B6D1CDEE74A4600DA6942FC
:1005A00006A800F067FA06AB93E8070003AB83E800
:1005B000070050460A9900F04FFF8DE80700A0F5AC
:1005C00000501F3800900398002D0ADD42F21F01F1
:1005D0004A460844002303A90390684601F0B8F98D
:1005E00009E0A0F500504A461F38002303A90390F4
:1005F000684601F0C2F98DE807000004000C03D042
:100600004FF0FF30410800E01046B8F1000F03D072
:100610000022009215461EE0751E05D400F08CF9EC
:10062000303262556D1EF9D5B3460122084302D01F
:1006300000227F1C04E02078302801D100227F1E98
:10064000002A099784D01DE0112D07DA00F074F913
:10065000303262556D1C50EA0102F5D1084302D0D8
:100660000098C8B10EE00021681E05E0235C625CC2
:1006700063542254401E491C8142F7DBAB46A81B41
:10068000401E0990002004F80B000B98099AC0F84E
:100690000880C0E9002B7AE711264FF0000857E7E1
:1006A0002DE9F04F88460446D21D22F0070191B093
:1006B000D1E90001CDE90A0102F048FC02460B989D
:1006C000C00F01D02D2007E02068810701D52B2025
:1006D00002E0202101EAC000032A099001D0072A84
:1006E00005DB03464146204600F084F90BE1207803
:1006F000800601D5E06900E00620B8F1650F81466B
:1007000006D0B8F1660F18D0B8F1670F70D131E09C
:100710000020B9F1110F009001DB112301E009F174
:1007200001030AAA01A90CA8FFF7E2FEDDE90C709B
:10073000002609F10105834647E001204B46009061
:100740004FF000470AAA01A90CA8FFF7D1FEDDE986
:100750000DB00C995D46002610B909F101000D1885
:10076000B9EB050003D4C0F1FF3609F10105A5EB93
:1007700009002BE0B9F1010F01DA4FF00109002067
:10078000B9F1110F0090484601DD112300E0034646
:100790000AAA01A90CA8FFF7ABFEDDE90C704D46D3
:1007A00000268346207800070AD4AB4500DA5D4670
:1007B00001A8012D04DD411911F8011C302907D0D1
:1007C0004F4502DA17F1040F04DA012082460FE0E8
:1007D0006D1EEEE7002F02DCED1B3E4403E0781CAB
:1007E000A84200DD7D1CB81B00F1010A4FF0004754
:1007F0002078000703D4AA4501DB4FF0FF3A00211F
:10080000B7F1004F0DF143088DF8431024D00220BA
:100810002B23002F01DA7F422D230A21021EA0F193
:10082000010000DC5FB197FBF1FC97FBF1F201FBEB
:100830001C7C17460CF1300C08F801CDEEE7A8F14E
:10084000010003702188090501D5452100E06521DB
:10085000A0F1010800F8011C09980FA9A1EB0807F5
:10086000FF1D00B10120411901EBEA70A169384474
:10087000081A401EA0612078C00602D42046AFF3BB
:100880000080099828B1D4E901219047206A401CD2
:1008900020622078C00622D52046AFF300801EE0FB
:1008A000002E04DBB34502DD01A8805D00E03020AE
:1008B000D4E901219047206A401C2062761CAAF1ED
:1008C00001005FEA000A0AD100F032F8C06801684E
:1008D000405CD4E901219047206A401C2062281E18
:1008E000A5F10105DCDC07E0D4E9012118F8010BD2
:1008F0009047206A401C2062381EA7F10107F3DCF4
:100900002046AFF30080032011B041E6074B70B5DD
:100910000D467B4400F05BF80446284600F01CF9C5
:1009200010B14FF0FF3070BD204670BD8F26000023
:1009300000487047B001002030B5B0F10A024FEA1C
:10094000900E71F100034EEA817EB0EB0E0061EB78
:1009500091014FEA101E4EEA017E10EB0E0041EBB2
:1009600011114FEA102E4EEA016E10EB0E0041EB12
:1009700011214FEA104E4EEA014E10EB0E0041EBF2
:100980001141401841F100014FEAD00040EA4170A6
:100990004FEAD10110EB80054FEA810444EA9074DC
:1009A00044EB01046D1944EB0404521BA3414FF0C6
:1009B000000348BF0A3200D530BD401C41F10001A0
:1009C00030BD000001694A1C02610878704700B51B
:1009D0008FB0CDE901310021059105497944CDE978
:1009E000031011466846FFF74FFC0FB000BD000032
:1009F000E5FFFFFF2DE9F0411F460446032601688D
:100A0000072A01F4006004DB08B116A505E016A56D
:100A100003E008B115A500E015A521F01000206045
:100A2000A069C01EA0610FB1401EA0612046AFF3B7
:100A300000804FB1D4E9012138469047206A401C1C
:100A40002062C01C206206E0206AFAE7D4E9012196
:100A500015F8010B9047761EF8D22046AFF30080C0
:100A6000BDE8F0814E414E006E616E00494E460079
:100A7000696E66002DE9F047814616468AB0354812
:100A800078440DC88DE80D0032487844801C03ACD2
:100A90000DC884E80D0041F69B300844372190FBD7
:100AA000F1F290FBF1F5A5F1800501FB12041B3C6E
:100AB00002D56442012000E00020DFF898A08046C3
:100AC0000027FA44AAF1BE0A0EE0E0070AD0324637
:100AD000684607EB470101230AEB810100F04DFF57
:100AE0008DE8070064107F1C002CEED1194F7F4465
:100AF000AE3F19E0E80715D007EB04100DF1180A16
:100B000090E80E008AE80E00C068F04201D1981902
:100B100008903246012306A903A800F02EFF03AB7C
:100B200083E807006D10641C002DE3D14FF0010332
:100B300032466946B8F1000F03A802D000F008FF62
:100B400001E000F01AFFC9E90001C9F808200AB065
:100B5000BDE8F087602A0000007B00F0800070474D
:100B600010B542485421FFF73FFC41485421FFF79C
:100B70003BFC40485421FFF737FC3F493B483C4A87
:100B80003F4B08603D490A603A491960531C0365B0
:100B9000481C1065012008653B48344A39A1784457
:100BA00000F022F920B9384878440A3800F0C1F939
:100BB00037482F4A35A1784400F016F920B9344857
:100BC00078440A3800F0B5F932482A4A2FA178440F
:100BD00000F00AF920B92F4878440A3800F0A9F942
:100BE00040232248DC000021224600F0D9F820B141
:100BF00025487844543800F09CF91D48224640238B
:100C0000002100F0CDF820B121487844543800F09C
:100C100090F9184822461023002100F0C1F800285E
:100C200006D01C487844BDE81040563800F081B921
:100C300010BD104870B5006D20F001040B4800F0A5
:100C400049F90B4800F046F90A4800F043F909E079
:100C5000206D20F00105204600F03CF9204600F010
:100C600078F82C46002CF3D170BD000094000020D1
:100C7000E80000203C0100201000002014000020AB
:100C800018000020720000005A29000077000000C0
:100C900046290000322900000EB5CDE9000100F020
:100CA0001FFB029069460120ABBE0EBD08B5694628
:100CB00000900220ABBE08BD1FB58DE80700694655
:100CC0000520ABBE04B010BD1FB58DE80F0069460E
:100CD0000620ABBEF6E708B5694600900920ABBE1A
:100CE00008BD1CB5CDE9000169460A20ABBE1CBD9C
:100CF000704708B5694600900C20ABBE08BD0000E7
:100D000000487047900100207546FFF7F9FFAE4696
:100D100005006946534620F00700854618B020B507
:100D2000FFF758FABDE820404FF000064FF00007EB
:100D30004FF000084FF0000B21F00701AC46ACE883
:100D4000C009ACE8C009ACE8C009ACE8C0098D46F0
:100D5000704770B50446051F00F034F90068002C98
:100D600014BF446870BD002C18BFAC423CBF204685
:100D70006468F8D301680A18AA4218BF456003D115
:100D80002A6805461144016028684119A1421CBF28
:100D90006C6070BD6168696021680844286070BD3E
:100DA00070B5C468A50713D0650211D4B2F5807F71
:100DB00009D0B2F5007F06D0B2F5806F08D10123CB
:100DC00000F1240106E05D1E6FF07F46B54201D3BD
:100DD000012070BD0161C361416024F47061114361
:100DE000C160002070BD00002DE9F0410C460746AF
:100DF0001646104600F06EF82078611C61280AD073
:100E0000722802D077283CD102E00125002405E0B9
:100E10000225042402E0082448F2020511F8010B1F
:100E20002B2806D0622809D011F8010C74280AD0AA
:100E30000BE045F0030544F00204EFE745F004053C
:100E400044F00104EAE744F0100438462146FFF775
:100E500023FF411C15D00021316171604FF40071F6
:100E6000F560F1617061200704D53046022200214F
:100E700000F022F9306D40F0010030653046BDE8E9
:100E8000F0810020FBE72DE9F0410D460646104CAD
:100E9000206DC10704D0410804D020F00104F7E719
:100EA00022460EE0542000F0D8F807000ED0206D46
:100EB00047F001010843542120653846FFF794FAB2
:100EC0003A4629463046BDE8F0418DE70020D6E796
:100ED000940000202DE9F04704464FF000094FF040
:100EE000FF37C568D4E90486A80707D0204600F07C
:100EF00093F93046FFF7DAFE002802DA3846BDE8FB
:100F0000F087280502D54046FFF723FF4C212046F5
:100F1000FFF76AFA206D20F0010020654846EEE7F1
:100F200010B50446AFF300802046BDE81040FFF73F
:100F30003CB910B500F0BAF9BDE8104000F0B0B906
:100F40004FF0013C50F8042B51F8043B9A4221D158
:100F5000A2EB0C03934313EACC1317D150F8042BE4
:100F600051F8043B9A4215D1A2EB0C03934313EAC8
:100F7000CC130BD150F8042B51F8043B9A4209D101
:100F8000A2EB0C03934313EACC13DBD04FF0000029
:100F9000704700BFD01A01BAB1FA81F101F018010F
:100FA00022FA01F0CB40C1F12001DBB2C0B2C01A7D
:100FB0002CFA01F3D11A914311EAC311E6D170471B
:100FC0007047000000487047980100207047704744
:100FD0007047704738B504460A4600206946AFF3AB
:100FE0000080002808BF38BD02460099204600F066
:100FF000A4F9012038BD012000F0F3B9F8B5AFF332
:101000000080054600200C46102000BF0646A819A7
:10101000A0420DD9324669460020AFF30080070098
:1010200008BF00F0DEF90098A04218BF0546C419B9
:10103000FFF7C8FF05600746F01D20F007004619BE
:10104000284600F073F9B44208BFF8BDA21B314630
:101050003868BDE8F84000F070B970B50646FFF793
:10106000B1FF056806F10B0020F00704B4429CBFF5
:10107000002070BD2B466A68BAB11068A04210D338
:1010800004F1080188423CBF5068586007D351689A
:10109000101941601168091B016058601460101D2F
:1010A00070BD13465268002AE7D121462846FFF753
:1010B00091FF0028DED170BD2DE9F04104461646AF
:1010C0000D464769007B80072ED03846FFF703FEA8
:1010D00050BB3EB3012E02D0022E25D104E02046A3
:1010E00000F045F905441DE03846FFF702FEE168CF
:1010F000002841F01001E16005DA204600F058F8C0
:101100000120BDE8F081C9030BD56268E16A914214
:1011100000D81146A26911442269891A814200DD72
:1011200008460544002D01DA0220EAE7E16A60681A
:10113000E268814206D29103E06203D522F40031D5
:1011400041F01002A6690027AE4213DCE16A814239
:1011500001D90B4600E0034603EB060C2369ACEB18
:10116000030CAC4506DD814201D98C4600E0844683
:101170009C4505D1A760276042F02000A5620DE0E4
:10118000AD1BE669AE1B8142A66000D90846C01AB5
:10119000281A20605819606022F020000349084096
:1011A000E060002084F84870ABE70000BFCFD7FFB5
:1011B000C16821F4001141F08001C160002181600B
:1011C000016070472DE9F047814614460E464FF006
:1011D000FF383248D5685769054209D03846A169B9
:1011E000FFF77FFD002811DB2C48C0430540E56078
:1011F0002B46324649463846FFF75EFDA16920F08E
:101200000042B21A11440028A16103D02046FFF722
:10121000CFFF4046BDE8F08770B504460569C06A57
:101220006168884200D80846E16821F42011E16035
:10123000C90312D5A84208D02246411B2846FFF711
:10124000C1FF10B14FF0FF3070BD0020E562C4E96E
:101250000150E06820F48030E060002070BD10B5DF
:101260000446C06820F02000E060A16AA0698842BE
:101270000DD02046FFF7D0FFE06820F4405040F04A
:101280001000E060A06AA0612069E062606044F242
:101290004001E0688843E06010BD000010000200DB
:1012A000002801D000F03CB87047000010B501469E
:1012B00002A000F07DF8012010BD00005349475204
:1012C000545245443A2052656469726563743A2009
:1012D00063616E2774206F70656E3A200000000015
:1012E00010B5431C02E010F8011B71B18107FAD15F
:1012F0004FF0013202C88C1A8C4314EAC211F9D0A3
:10130000C01A0A0603D0C01E10BDC01A10BD0A04C0
:1013100001D0801E10BD0902FCD0401E10BD00008F
:1013200001491820ABBEFEE7260002000021016043
:10133000C0E90110704710207047034640688C4692
:10134000002818BF88423CBF03464068F8D318689D
:101350001844884207D00CF1030020F00700001D5C
:10136000411A521A0146081D0A60FFF7F2BC10B577
:101370000146C268900703D0900607D5886A0AE044
:1013800000F03EF801210160881E10BD8B6948689D
:1013900018440B69C01A91F848301BB191F84910F4
:1013A000401A10BD1103FCD50028FADD401E10BD07
:1013B00070B505460C460A2000E06D1C00F018F8D8
:1013C00035B128780028F8D102E0641C00F010F84C
:1013D00014B120780028F8D1BDE870400A2000F050
:1013E00007B810B500F010F8BDE81040FFF758BF7F
:1013F00008B569468DF800000320ABBE08BD0000AB
:10140000004870479001002010B5012805D0002148
:1014100003A0FFF7CDFF012010BD09A1F8E70000F0
:1014200053494752544D454D3A204F7574206F66CD
:101430002068656170206D656D6F72790000000035
:101440003A2048656170206D656D6F727920636F19
:1014500072727570746564005FEA400C08BF91F0A9
:10146000000F4FEA8C234FEAC12243EA51514FEA61
:101470001C5018BF00F5F0404FEA300018BF41F093
:1014800000415FEA6C5C00F02980BCF1FF3F08BFBF
:1014900040F080407047130C06BF12044FF0100C50
:1014A0004FF0000C130E04BF12020CF1080C130FC6
:1014B00004BF12010CF1040C930F04BF92000CF155
:1014C000020CD30F04BF52000CF1010C11464FF077
:1014D0000002A0F11F00A0EB0C00704711F0004FBC
:1014E00008BF704731F000413FF4D5AF0B0C06BF89
:1014F00009044FF0100C4FF0000C0B0E04BF090252
:101500000CF1080C0B0F04BF09010CF1040C8B0F3C
:1015100004BF89000CF1020CCB0F04BF49000CF191
:10152000010CCCF12003A0EB0C0022FA03F302FA29
:101530000CF241EA030100F10100704720F07F4CFA
:1015400080EA030023F07F47ACEB070303F57C53ED
:1015500000F0004003F1FF032DE980494FEA154BED
:1015600009B44FEA144325EA0B4E24EA03480FF26C
:10157000042606EB132749083E785FEA320203FB94
:101580000667C7F5000707FB06F64FEA54374FEA30
:10159000D64606F1020607FB066CCCF1005C4FEA6A
:1015A0001C472CEA074C07FB06F40CFB06F504EB82
:1015B00015464FEA961634BF00204FF000404FEA20
:1015C000D13706FB07FC4FEA1C4C0CFB0BF7D21B78
:1015D00003FB0CF761EB07010CFB0EF7B0EB0740C8
:1015E00072EB17420CFB08F734BFA2EB0742B2EBD9
:1015F000074261EB17414FEA0C444FEA910706FBA3
:1016000007FC4FEA1C4C0CFB0BF7B0EBC74072EB2E
:10161000573203FB0CF734BFA2EBC742B2EBC74211
:1016200061EB57310CFB0EF7B0EBC70072EB577252
:101630000CFB08F734BFA2EBC702B2EBC70261EBA9
:101640005771039F4FEA816141EA921104EBCC0488
:101650004FEAD1374FEA826206FB07FC42EA90125A
:101660004FEA80604FEA1C4C0CFB0BF7D21B03FBCC
:101670000CF761EB07010CFB0EF7B0EB074072EBC8
:1016800017420CFB08F734BFA2EB0742B2EB07424C
:1016900061EB17414FEA8C554FEA910704EB9C240C
:1016A00006FB07FC4FEA1C4C0CFB0BF7B0EBC740EA
:1016B00072EB573203FB0CF734BFA2EBC742B2EB1D
:1016C000C74261EB57310CFB0EF7B0EBC70072EB72
:1016D00057720CFB08F734BFA2EBC702B2EBC7028C
:1016E00061EB577115EB4C254FEA816141EA92118C
:1016F0004FEA82624FEAD13742EA901206FB07FCBA
:1017000044F100044FEA80604FEA1C4C0CFB0BF7DD
:10171000D21B03FB0CF761EB07010CFB0EF7B0EBE0
:10172000074072EB17420CFB08F734BFA2EB0742ED
:10173000B2EB074261EB174115EB1C154FEA813103
:1017400041EA92414FEA823242EA90424FEA8030C7
:101750004FEA0C7644F1000448EA03434EEA0B4892
:101760004FF0000EB2EB080C71EB030724BF62468A
:1017700039464EEB0E0E4FF0000B00185241494116
:101780004BEB0B0BB2EB080C71EB03077BF1000B7F
:1017900024BF624639464EEB0E0E4FF0000B001888
:1017A000524149414BEB0B0BB2EB080C71EB0307B9
:1017B0007BF1000B24BF624639464EEB0E0E51EA18
:1017C000020718BF46F0010616EB0E7655F100022F
:1017D00054F1000103D5BDE88901BDE80088BDE8EA
:1017E0008901BDE80048B619524141EB0101A3F15E
:1017F0000103704780807F7E7D7C7B7A7978777665
:1018000076757473727171706F6E6E6D6C6C6B6ADD
:101810006A6968686766666564646363626161607B
:10182000605F5F5E5E5D5D5C5C5B5B5A5A595958F8
:101830005857575656555555545453535252525162
:10184000515050504F4F4F4E4E4D4D4D4C4C4C4BB8
:101850004B4B4A4A4A4949494848484747474746FF
:10186000464645454544444444434343434242423B
:1018700042414141002B9C4630D477002BD01CB50F
:101880004FEA370703B44FF010004FF01001BAF1E0
:10189000000F06D0BCF1000FDCBF40F0080040F0A4
:1018A00008014FF000000FBCBDE810400BF1010B28
:1018B000BBF1010F08BF5FEA170722BF12F1010257
:1018C00011F101014FF0004143F1000300F000402D
:1018D00043EA00007047F9D35708D0E746EA0646C6
:1018E00013F1400F4FEA16461FDD13F1200FDFBF43
:1018F00016430A46002120335B42BED0C3F12007C5
:1019000046EA064602FA07F74FEA164646EA07068F
:10191000C3F1200722FA03F201FA07F721FA03F1D3
:101920004FF0000342EA0702A7E746EA020646EA4A
:1019300006464FEA164646EA0106BCBF46EA064698
:10194000360C4FF000034FF000024FF0000194E717
:101950002DE9804C9A46934670B491E8380007C848
:1019600031EA400C48BF34EA430C03D5FFF7E6FDEB
:10197000FFF780FFF0BCBDE8008C2DE9804C9A4653
:10198000934670B491E8380007C810F0804F08BF44
:1019900013F0804F03D100F005F8FFF76BFFF0BCA8
:1019A000BDE8008C20F07F4780EA030023F07F4CE5
:1019B00007EB0C03A3F57C5300F00040A3F1FE03FA
:1019C00092F0000F00F0B38095F0000F00F07780E8
:1019D0002DE901494FEA11404FEA144621EA004837
:1019E00000FB06FC24EA064708FB06F607FB08F89E
:1019F00000FB07F718EB06484CEB164C4FEA124B6E
:101A000018EB07484FEA15464CEB174022EA0B4EFD
:101A10000BFB06FC25EA06470EFB06F607FB0EFE4F
:101A20000BFB07F71EEB064E4CEB164C4FF0000677
:101A30001EEB074E4CEB174B18EB0B0840F1000068
:101A400018EB0E0B58EB000840F100008F1A4FF016
:101A500000013CBFC943661B14BFB5EB040C002159
:101A60003CBFC943F61B4FEA17444EEA8E0E27EAE5
:101A700004454FEA1C4704FB07622CEA074C05FBB0
:101A800007F70CFB05F604FB0CFC16EB074642EBD4
:101A9000174216EB0C4642EB1C421BEB060658EBBA
:101AA0000202414146EA9E0601D5BDE80189B61908
:101AB000524141EB0101A3F10103BDE801894FEA65
:101AC00014454FEA114724EA054621EA074C05FB75
:101AD00007F406FB07F70CFB06F105FB0CFC11EB0A
:101AE000074144EB17444FEA124711EB0C4144EB1A
:101AF0001C4422EA074C05FB07F206FB07F70CFB28
:101B000006F605FB0CFC16EB074642EB174216EBFC
:101B10000C4642EB1C456A1854F1000148BF70475F
:101B2000B619524141EB0101A3F10103704795F051
:101B3000000F37D04FEA11424FEA144721EA02461C
:101B400024EA074C02FB07F106FB07F70CFB06F43F
:101B500002FB0CFC14EB074441EB17414FEA15471D
:101B600014EB0C4441EB1C4125EA074C02FB07F542
:101B700006FB07F70CFB06F602FB0CFC16EB074610
:101B800045EB174516EB0C4645EB1C42121951F17B
:101B9000000148BF7047B619524141EB0101A3F162
:101BA000010370474FEA14454FEA114724EA0546FE
:101BB00021EA074C05FB07F106FB07F70CFB06F2D1
:101BC0004FF0000605FB0CFC12EB074241EB1741FE
:101BD00012EB0C4251EB1C4148BF7047921841EB8D
:101BE0000101A3F10103704770B5044600688168E4
:101BF000C943C90717D1816821F00101816000F054
:101C0000B7FB05460AE000BF00F0B2FB401B02280C
:101C100004D920688068C043C00706D02068806867
:101C2000C043C007F0D0002070BDA06A40F0100093
:101C3000A062E06A40F00100E062012070BD000097
:101C4000F8B500260446009600688168C943C907B4
:101C50002DD0816841F00101816016481649006865
:101C6000B0FBF1F000E0401E00900028FBD100F036
:101C70007FFB054616E000BF00F07AFB401B022800
:101C800010D920688068C043C0070BD0A06A40F01C
:101C90001000A062E06A40F00100E06284F8246075
:101CA0000120F8BD20688068C043C007E4D100204F
:101CB000F8BD00000C00002040420F00FEE7704716
:101CC00072B6FEE7F8B50024009490F8242025466B
:101CD000012A12D0012280F824204A681F23072AF3
:101CE0000DD20668776B521E02EB820293409F432F
:101CF0000B6893401F43776319E00220F8BD066824
:101D00000D2A0AD2376BD21F02EB820293409F4307
:101D10000B6893401F43376309E0F76A0D3A02EB03
:101D2000820293409F430B6893401F43F7620A6807
:101D3000072306680A2A0AD3F7680A3A02EB420226
:101D400093409F438B6893401F43F76008E03769D7
:101D500002EB420293409F438B6893401F433761DD
:101D60000A68102A01D0112A20D1124B02689A4227
:101D700017D193681B0219D4936843F4000393604E
:101D80000968102912D10C490C4A0968B1FBF2F11B
:101D900001EB8101490000E0491E00910029FBD1BF
:101DA00004E0816A41F020018162012480F824501E
:101DB0002046F8BD002401400C00002040420F00E6
:101DC0000068C06C704700002DE9F0414FF000073B
:101DD00004003D467ED0A06A002628B9E66284F859
:101DE0002460204600F07EF82046FFF7FDFEA16A41
:101DF000C90600D420B1A06A40F01000A06269E0DA
:101E0000A16A21F4885141F00201A1626268E1698E
:101E1000237B0A4347EA43010A43A1684FF48077D2
:101E2000B94209D0012907D05FF0000194F814C02D
:101E3000BCF1010F02D00AE03946F7E7F3B1A36A1B
:101E400043F02003A362E36A43F00103E3622368E3
:101E5000D3F804C02CF4694C4CEA010CC3F804C05C
:101E600021688B68DFF870C003EA0C0313438B60B2
:101E7000A168B9420BD0012909D00CE0DFF85CC0A1
:101E8000A3690CEB43330B4343F40061DFE7218A82
:101E90000D05A5F580152168CB6A23F470032B434B
:101EA000CB62216889680E4B1940914208D1E662E5
:101EB000A16A21F0020141F00101A162BDE8F081B7
:101EC000A06A20F0020040F01000A062E06A40F03A
:101ED0000100E0620120F1E7FDF7E1FF00E0FFFF14
:101EE000FE0E1FFF00B585B0002100910191029107
:101EF000039100680E49884218D10E48816941F467
:101F000000718161816901F400710491816941F07E
:101F1000040181618069694600F00400049010208A
:101F2000009003200190044800F032F905B000BD94
:101F30000024014000100240000801402DE9F84350
:101F400000270D460446009700F012FA80462068EC
:101F50008168C90508D5A06A40F02000A06284F815
:101F600024700120BDE8F8834168C90503D4C06A24
:101F700010F4700F2AD0022000F08AFA3B49096859
:101F8000B1FBF0F62068036939490B424FEA610161
:101F90004FEAA1121FD1C3684FEA611C13EA0C0F6C
:101FA00019D103690B4225D1C068104222D11420F7
:101FB00023E0681C0AD02DB100F0DAF9A0EB08008C
:101FC000A84203D920680068800725D520680068EA
:101FD0008007EED52DE003690B4202D1C1681142A2
:101FE00006D0026923490A4206D1C068084203D1DB
:101FF000542002E0292000E0FC204643009816E02F
:10200000681C11D02DB100F0B3F9A0EB0800A84274
:102010000AD90098B04207D2A06A40F00400A0623A
:1020200084F8247003209DE70098401C0090B04283
:10203000E6D321686FF012000860A06A40F40070D7
:10204000A06220688068C0F3424007280CD1207B42
:1020500050B9A06A20F48070A062A06AC00403D4C2
:10206000A06A40F00100A06200207BE70C00002085
:10207000244992244992240070B5044690F8240023
:1020800001280DD0012084F824002046FFF7D8FD58
:1020900002004FF0000005D084F82400104670BD07
:1020A000022070BDA16A40F20123994341F480717E
:1020B000A1621F4D23681F49AB4218D10E6816F468
:1020C000702F14D0A66A46F48016A6620E687605B4
:1020D00005D5A66A26F4005646F48056A662A66A7E
:1020E000F6040AD5E66A26F00606E66206E0A66A67
:1020F00026F48016A6625E68E9E7E06284F82400B0
:102100006FF00200186020688368C3F34243072B16
:1021100005D1A84208D1096811F4702F04D0816854
:1021200041F480118160B9E7816841F4A001F9E7C9
:10213000002801400424014010B5044690F8240012
:10214000012807D0012084F824002046FFF74CFD29
:1021500010B107E0022010BDA16A21F4885141F0BE
:102160000101A162002184F8241010BD70B504465D
:1021700000F0FEF80546601C02D0044800780444D4
:1021800000F0F6F8401BA042FAD370BD000000201A
:102190002DE9F84FDFF8B8910024A9F1040B23468C
:1021A0000F2709F1040AABF1040EC9E00125A5408F
:1021B0002A40AA427DD1674ED1F804C0ACEB060894
:1021C000B44532D014DCBCF1030F3AD009DCBCF1C9
:1021D000000F2AD0BCF1010F1CD0BCF1020F31D18D
:1021E0001DE0BCF1110F17D0BCF1120F2AD119E07C
:1021F000B8F5881F19D006DCB8F5803F15D0B8F5C2
:10220000801F1FD111E0B8F5001F0ED0B8F5041FD4
:1022100018D10AE0CB6815E0CB681B1D12E0CB6833
:1022200008330FE0CB680C330CE08B682BB1012B2B
:102230004FF0080303D0456104E0042302E0056188
:1022400000E00023FF2A01D8064601E000F1040661
:102250004FEA840501D9A5F12005D6F8008007FAD8
:1022600005FC28EA0C0803FA05F548EA0508C6F853
:1022700000804D68ED0062D5374DAE6946F001062D
:10228000AE61AD6924F0030605F001050095334DFC
:1022900006EB050CDCF80850A607360F07FA06F81F
:1022A00025EA0805DFF8B880404503D14FF0000863
:1022B00017E044E0DFF8AC80404502D14FF0010860
:1022C0000FE0DFF8A480404502D14FF0020808E09B
:1022D000DFF89880404502D14FF0030801E04FF04D
:1022E000040808FA06F848EA0508CCF808804D68A2
:1022F000D9F80060ED024D4601D5164300E0964343
:102300002E604D68DAF80060AD02554601D51643DF
:1023100000E096432E604D68DBF80060AD035D463B
:1023200001D5164300E096432E604D68DEF800604C
:10233000ED03754601D5164300E096432E60641CFC
:102340000D682A46E5407FF431AFBDE8F88F000004
:10235000080401400000111000100240000001407C
:1023600000080140000C0140001001400014014031
:102370000148806870470000000000200248816822
:10238000027811448160704700000020074810B5B2
:10239000016841F010010160032000F067F80F2090
:1023A00000F006F800F024F8002010BD00200240E4
:1023B00070B50D4D04464FF47A712878B1FBF0F0FA
:1023C0000A490968B1FBF0F000F096FB48B9102CFF
:1023D00007D200222146501E00F028F800206C6031
:1023E00070BD012070BD0000000000200C00002026
:1023F0000C4808B5816941F001018161816901F0F2
:1024000001010091C16941F08051C161C06900F0D2
:10241000805000900448416821F0E06141F0806103
:10242000416008BD0010024000000140F0B40E4BB6
:102430001B680C46C3F30223C3F10705042D00D922
:102440000425191D072901D2002300E0DB1E012607
:1024500006FA05F1491E214099409E40761E16401D
:102460003143F0BC00F086BD0CED00E0064900F001
:10247000070208684FF6FF03184040EA0220034AAB
:1024800010430860704700000CED00E00000FA0502
:1024900010B501460020234C012922D0022939D051
:1024A00010291DD161682268D20119D51E48C1F3D7
:1024B0008342C903805C0AD561681B4AC1F340416D
:1024C000921E515C194AB2FBF1F1484301E01849F0
:1024D00048436168490203D440000321B0FBF1F096
:1024E00010BD226AC2F30121012903D1920701D54F
:1024F000C80310BD022905D1626A920702D549F6C8
:10250000404010BD0329FCD121688903F9D54FF261
:10251000244010BD00F02AF96168C1F38131491CE3
:102520004900DBE7001002404034000800127A0046
:1025300000093D002DE9F84305460078354CC007F9
:1025400054D0E0690026C00008D4E06940F0805013
:10255000E061E069012600F0805000902E4801689B
:10256000C90512D40168804641F480710160FFF70B
:10257000FFFE074605E000BFFFF7FAFEC01B642818
:1025800023D8D8F80000C005F6D5206A10F44070B2
:1025900021D0A98801F4407181421CD0206A1F49D2
:1025A000012220F440700A6000220A602062C00705
:1025B00011D0FFF7DDFE074641F2883808E000BF82
:1025C000FFF7D6FEC11B414502D90320BDE8F883C1
:1025D000206A8007F4D5206A696820F440700843B7
:1025E00020621EB1E06920F08050E0612878800709
:1025F00005D56068A96820F44040084360602878E9
:10260000C00605D56068E96820F480000843606072
:102610000020DBE70010024000700040400442420E
:102620002DE9F0470F46050061D0434E306800F0B9
:102630000700B84209D2306820F007003843306004
:10264000306800F00700B84251D128683B4C810740
:1026500012D5400703D5606840F4E06060602878D8
:10266000000703D5606840F4605060606068A96846
:1026700020F0F000084360602878C00728D0686820
:10268000012810D02168022810D0890700292EDAED
:10269000616821F0030101436160FFF769FE804634
:1026A00041F288390DE021688903EFE78901EDE700
:1026B000FFF75EFEA0EB0801494502D90320BDE803
:1026C000F0876068696800F00C00B0EB810FEFD113
:1026D000306800F00700B8420BD9306820F00700DE
:1026E00038433060306800F00700B84201D0012064
:1026F000E5E72878400705D56068E96820F4E060E0
:10270000084360602878000706D56068296920F4CE
:10271000605040EAC100606000F038F86168084A23
:10272000C1F30311515CC8400649086006480068BF
:10273000FFF73EFE0020C2E70020024000100240EA
:10274000503400080C000020040000200448054913
:1027500000684968044AC1F30221515CC8407047CF
:102760000C000020001002406034000804480549B5
:1027700000684968044AC1F3C221515CC8407047EF
:102780000C00002000100240603400080E4A51681E
:102790000E4801F00C03042B11D0082B0FD10C486C
:1027A000C1F38343C903C05C0AD55168084AC1F329
:1027B0004041921E515C054A5043B0FBF1F0704716
:1027C00004494843704700000010024000127A009C
:1027D0002E34000800093D002DE9F84F040070D0A8
:1027E0002078C04DC00749D06868C0F38100012837
:1027F00007D06868C0F38100022809D16868C00367
:1028000006D52868800339D560680028E7D035E010
:102810006068B0F5803F0BD010B1B0F5A02F11D09B
:10282000286820F480302860286820F4802002E0A6
:10283000286840F480302860606890B1FFF798FD08
:1028400006460AE0286840F480202860F0E700BFD0
:10285000FFF78EFD801B642873D828688003F7D5A6
:102860000CE0FFF785FD064605E000BFFFF780FDA1
:10287000801B6428F0D828688003F7D420789A4E0B
:1028800080074FF001094FF0000839D5686810F053
:102890000C0F07D06868C0F38100022809D168686E
:1028A000C00306D42868800714D52069012808D100
:1028B00010E02069B0B1C6F80090FFF759FD074657
:1028C00005E00AE1FFF754FDC01B0228C4D82868C0
:1028D0008007F7D52868616920F0F80040EAC10058
:1028E00028600DE0C6F80080FFF742FD074604E0CF
:1028F000FFF73EFDC01B022823D828688007F7D4C5
:10290000207800072CD57948A169D9B1C0F800908A
:10291000FFF72EFD074604E0FFF72AFDC01B022843
:102920000FD8686A8007F7D571484FF4FA510068EC
:10293000B0FBF1F0009000BF0098411E0091FAD268
:102940000EE080E0C0F80080FFF712FD074604E0CB
:10295000FFF70EFDC01B022875D8686A8007F7D400
:102960002078400760D5E8690027C00008D4E869EE
:1029700040F08050E861E869012700F08050009045
:102980005C480168C90513D40168834641F480712D
:102990000160FFF7EDFC824606E000BFFFF7E8FCB0
:1029A000A0EB0A0064284ED8DBF80000C005F5D57E
:1029B000E06801280AD008B1052813D0286A20F061
:1029C00001002862286A20F0040002E0286A40F032
:1029D00001002862E06841F2883B98B1FFF7C8FC2B
:1029E00082460BE0286A40F004002862EEE700BF50
:1029F000FFF7BEFCA0EB0A0159455AD8286A8007A8
:102A0000F6D50CE0FFF7B4FC824605E0FFF7B0FC1A
:102A1000A0EB0A0159454CD8286A8007F6D41FB1AB
:102A2000E86920F08050E861E06988B36968C1F323
:102A30008101022944D00228C6F8608004D0FFF743
:102A400097FC044638E034E0FFF792FC074604E0C8
:102A5000FFF78EFCC01B02282BD828688001F7D412
:102A6000206AB0F5803F05D16868A16820F4003085
:102A700008436860D4E908010843696821F47411C7
:102A800008436860C6F86090FFF772FC044606E0F1
:102A900025E000BFFFF76CFC001B022809D828685E
:102AA0008001F7D51BE000BFFFF762FC001B022886
:102AB00002D90320BDE8F88F28688001F4D40EE025
:102AC0000128F7D06868226A00F48031914204D16D
:102AD000616A00F47010884201D00120EAE700200A
:102AE000E8E7000000100240000042428004424239
:102AF0000C0000200070004010B5401EB0F1807F37
:102B000001D3012010BD4FF0E02460610F21601758
:102B100000F030FA0020A06107202061002010BDE5
:102B200070B5040004D094F84100002510B106E00F
:102B3000012070BD84F84050204600F023F8242086
:102B400084F841002068C16821F40051C16020462A
:102B500000F066F92068016921F490410161206864
:102B6000416921F02A0141612068C16841F40051A6
:102B7000C1606564202084F8410084F842006563E8
:102B8000002070BD30B585B00024009401940294FB
:102B9000039400681449884224D11448816941F49F
:102BA00080418161816901F480410491816941F032
:102BB0000401816180690E4D00F0040004904FF41F
:102BC000007000900220019003200390694628467F
:102BD000FFF7DEFA2815CDE900046946284602947D
:102BE000FFF7D6FA05B030BD0038014000100240B2
:102BF000000801402DE9F843044690F8410098464A
:102C000016460D46202802D00220BDE8F88385B183
:102C10007EB100206064212084F84100FFF7A8FB0A
:102C2000A6848146E684A0682027B0F5805F02D0A4
:102C300003E00120E9E7206910B12E4600250EE0EF
:102C400000260CE08021204600F046F9A8B9C6B164
:102C500016F8010B21684860E08C401EE084E08C8F
:102C60004B464FF00002CDF800800028EAD14FF02B
:102C70004001204600F030F940B184F84170032053
:102C8000C3E735F8020BC0F30800E3E784F84170AE
:102C90000020BAE7FEE700003EB50024114800948A
:102CA000019402940E498460016004730475012547
:102CB00005614FF460214460C161FFF785F808B1F8
:102CC000FEF7FEFF0420CDE90005694602940548A1
:102CD000FEF7F8FF002801D0FEF7F2FF3EBD00002E
:102CE000002401401C000020094808B5816941F01A
:102CF00020018161816901F020010091816941F029
:102D000004018161806900F00400009008BD0000AA
:102D1000001002400C4810B50A4901604FF4E1313F
:102D20004160002181600C22C160C0E90412816110
:102D3000C161FFF7F5FE002803D0BDE81040FEF7A3
:102D4000BFBF10BD003801404C000020FEE7FEE789
:102D500070477047FFF712BB30B593B02821684623
:102D6000FDF742FB14210AA8FDF73EFB00250120D8
:102D70000F9510951195010412958DE8230004908C
:102D80004FF4E010CDE90810022407946846FFF7DD
:102D900023FD08B172B6FEE70AA90F2081E83100D1
:102DA0004FF48060CDE90D0502210AA8FFF738FC39
:102DB00008B172B6FEE74FF4004011900F940FA8CF
:102DC000FFF7B8FB002801D072B6FEE713B030BDA4
:102DD000704701680C3151E8002F22F4907241E8ED
:102DE0000023002BF5D10168143151E8002F22F0A7
:102DF000010241E80023002BF5D1016B012909D123
:102E000001680C3151E8002F22F0100241E8002344
:102E1000002BF5D1202180F842100021016370477A
:102E200070B5044600680169E26821F4405111431D
:102E300001612169A0680843616908432168CA6883
:102E400041F20C639A430243CA6020684169A26957
:102E500021F44071114341611E492068884202D12A
:102E6000FFF784FC01E0FFF771FC00EBC00101EB10
:102E70000012606864218000B2FBF0F3B3FBF1F351
:102E80006FF018067343B2FBF0F5B2FBF0F605EBFA
:102E90008305322303EB0515B5FBF1F5B6FBF1F61F
:102EA00005F0F00505EB0615B2FBF0F6B2FBF0F00D
:102EB000B0FBF1F06FF01802504306EB800003EB1B
:102EC0000010B0FBF1F0216800F00F00284488608A
:102ED00070BD0000003801402DE9F84398461746C0
:102EE0000D460446089E24E0701C22D0FFF740FAED
:102EF000A0EB0800B0421AD8CEB12068C1684907DB
:102F000017D5802D15D0402D13D00168C94309076E
:102F10000FD401680025406800902046FFF759FF54
:102F20000820606484F840500120BDE8F883032045
:102F3000FBE72068006835EA000004D00020B842B2
:102F4000D2D00020F1E70120F9E7FEE7490050EA7E
:102F5000C12018BF04204A0D18BF40F0010040F204
:102F6000FF72B2EB515F08BF40F00200012808BFBA
:102F7000052070470907090E002804DB00F1E02056
:102F800080F80014704700F00F0000F1E02080F896
:102F9000141D704730380A2801D2012070470020E4
:102FA0007047000013B54FF6FF73012269460248CF
:102FB000FFF720FE00981CBD4C000020FFF7E6F94B
:102FC000FFF7CAFEFFF790FEFFF766FEFFF7A2FECF
:102FD0004FF4FA751148FFF74FF80A210F48FEF732
:102FE000ADFF98B90D48FEF7EBFE044600F03CF942
:102FF0000B4900F04DF90B4900F074F800F046F869
:1030000002460B46214608A0FDF7F6F80348FFF7F5
:1030100093F82846FFF7AAF8DCE700001C00002020
:103020003333534000F07F454144432056616C7573
:10303000653A20256C752C20426174746572792084
:10304000566F6C746167653A20252E326620560DE6
:103050000A00000010B500290AD00878002807D01F
:1030600005487844FDF76CFF002801D0002010BD12
:103070000248784410BD0000C6040000BE040000F1
:103080000808A0F500114FEA3101704743004FEAEC
:10309000D30C4FEA3C0C43401FBF40070CF160517A
:1030A00013F0FE4F70471CF0006F03D100200CF0AE
:1030B000004170470CF0004343EA507010B540EAFD
:1030C000CC0000F066F900BF000000924FEA00015A
:1030D000FFF7D6BF4FF000414FF00000A1F50021EF
:1030E000704700004FF47F0C1CEAD0121EBF1CEA90
:1030F000D11392EA0C0F93EA0C0F00F0858090EA4E
:10310000010F48BF42F4807240F4000C41F400000B
:103110002CF07F4120F07F4000B58142A2EB0302FA
:103120000FF2081CACEB504EC0F100009EF800E01E
:103130004FEA4E0E00FB0EFC38BF49004FEA2C1C34
:1031400002F5FA020CFB0EF34FEACE1E4FEA112CE9
:103150004FEAC1210EEB635E42EB22420EFB0CFCF8
:103160004FEA1C5300FB03114FEA112C4FEA0131C7
:103170000EFB0CFC4FEADC4C00FB0C11C14228BFDB
:1031800009184CEB03335DF804EB10EB410143EB02
:10319000C250B2F57C0F38BF704729D512F0F00F3E
:1031A0001CBF00F1C04000F00040704700818283E6
:1031B0008485868788898B8C8D8E8F919293959646
:1031C00097999A9C9D9FA0A2A3A5A7A8AAACAEB0D0
:1031D000B2B3B5B7B9BCBEC0C2C5C7C9CCCED1D4D5
:1031E000D7D9DCDFE2E6E9ECF0F3F7FAFE00000005
:1031F0004FEA400C0CF1807CBCF17E4F28BF704739
:10320000B0F1C04000F00BB990EA010F0CEAD11305
:1032100048BF42F48072624538BF634507D213F459
:103220007F0F16D080EA010000F00040704710B513
:1032300000F0AFF8097EFC3E00F005B880EA01001E
:1032400000F00040704780EA010000F0004000F00C
:10325000E6B812F47F0F04BF0248704780EA01000D
:1032600000F0DDB80000C07FB0FA80F310FA03F27E
:10327000C3F19D030AD0D90501EB1220530638BFD4
:10328000704700F1010008BF20F001007047000006
:103290004FF47F0C1CEAD0121EBF1CEAD11392EA35
:1032A0000C0F93EA0C0F00F0478090EA010F48BF23
:1032B00042F480724FF0004C4CEA00204CEA0121AD
:1032C00002EB0302A0FB0113A2F50002002918BFC4
:1032D00043F001035B0028BF4FEA330342EB224275
:1032E0005FEA132C4CEBC2502EBFBCEB436FB2F520
:1032F0007C0F70474FEA036CBCF1004F08BF20F011
:103300000100B2F57C0F38BF70470BD582F0FF0289
:1033100012F5803FC8BF704700F1C040D8BF00F031
:103320000040704700F5000C5FEA4C0C48BF704746
:10333000B0F1C04000F073B890EA010F0CEAD1136D
:1033400048BF42F48072624538BF634504D280EAC8
:10335000010000F00040704710B500F01AF800BFFF
:103360008900013E00F007B800F009B85FEA410C9F
:103370005FEA1C6C08D080EA010000F050B85FEAF8
:10338000400C5FEA1C6CF6D14FF00040A0F58000C5
:1033900070470EF1020E2EF0030E5EF8044B24422D
:1033A00004D44FEA4102B2F17F4F11D84FEA4003F3
:1033B000B3F17F4F0CD80ED14FEAD07CB2F17F4FE2
:1033C0000CEB4C0C0CF1020C08BF4CEBD17C04E074
:1033D0004FF0080C01E04FEAD17C0CEB4C0324FACF
:1033E00003F404F00704B4F1040C06D20EEB840CD1
:1033F000BDE810404CF0010C6047DFE80CF0070816
:1034000002024FF00040A0F5800010BD08464200C7
:1034100018BFD2F1807288BF00F0004010BDFF21BC
:1034200041EAD050C0057047FDF73AB901020203E6
:103430000405060708090A0B0C0D0E0F10100102F7
:1034400002030405060708090A0B0C0D0E0F1010E5
:103450000000000000000000010203040607080944
:10346000000000000102030402400000000000A070
:103470000000000005400000000000C8000000003F
:103480000C4000000000409C0000000019400000BB
:103490000020BCBE0000000034400000BFC91B8EED
:1034A00000000004B5400000504BCFD06607E2CFCB
:1034B000010000006C4100003E8251AADFEEA734FB
:1034C00001000000D9420000DCB5A0E23A301F97AD
:1034D000FFFFFFFFB4450000FD25A0C8E9A3C14FD1
:1034E000FFFFFFFFFF3F0000000000800000000022
:1034F000FF3F000000000080000000003A747400EC
:103500003A7474003A7474004435000800000020D6
:103510001C00000028010008603500081C00002085
:10352000D4070000440100081C0000004300000014
:10353000F8FFFFFF0C0000000E0000000F0000006D
:103540002E0000000100000010000000000000003C
:1035500000127A00000000000000000000000000DF
:04000005080000ED02
:00000001FF
